S017000053414D4537302D4D75746972616F432E737265632F
S21440000010BF4120E93F40009940400099404000E1
S2144000109940400099404000994040000000000050
S2144000200000000000000000000000009940400072
S2144000309940400000000000994040009940400030
S2144000409940400099404000994040009940400007
S21440005099404000994040009940400099404000F7
S2144000609940400000000000593140007131400086
S21440007089314000994040009940400099404000F6
S214400080A1314000B93140009940400099404000BD
S21440009099404000994040009940400099404000B7
S2144000A099404000994040009940400099404000A7
S2144000B099404000892940009940400099404000BE
S2144000C09940400099404000994040009940400087
S2144000D000000000994040000000000099404000A9
S2144000E0A129400099404000994040009940400076
S2144000F09940400099404000994040009940400057
S2144001009940400099404000994040009940400046
S2144001109940400000000000000000000000000081
S2144001209940400099404000994040009940400026
S214400130994040000000000099404000994040002F
S21440014010B5054C237833B9044B13B10448AFF3CC
S21440015000800123237010BDC0094020000000002D
S21440016044C043000C4B43B10C480D4910B5AFF3A7
S21440017000800C48036823B910BD0A48036833B9A9
S2144001807047094B002BF7D0BDE810401847064B88
S214400190002BF5D0184700BF0000000044C04300C5
S2144001A0C409402044C043000000000080B483B02F
S2144001B000AF0346FB71094997F907305B09FA79A6
S2144001C002F01F02012000FA02F241F8232000BF8D
S2144001D00C37BD465DF8047B704700BF00E100E089
S2144001E080B483B000AF03463960FB7197F907309F
S2144001F0002B0BDA0D49FB7903F00F03043B3A68FA
S214400200D2B25201D2B20B441A7609E0084997F9A5
S21440021007303A68D2B25201D2B20B4483F8002378
S21440022000BF0C37BD465DF8047B704700ED00E02C
S21440023000E100E080B48BB000AF224BD3F88030B2
S214400240FB61FB695B0BC3F30E037B62FB6903F048
S21440025007030433BB61FB69DB08C3F309037B6117
S2144002607B69BB60BB68B3FA83F37B607B68DBB2B9
S21440027003F01F033B61BFF34F8F7B693B623A6AD3
S2144002803B6902FA03F319467A6ABB6902FA03F33A
S2144002900B43FB600B4AFB68C2F874323B6A5A1E3B
S2144002A03A62002BEBD17B6A5A1E7A62002BE4D16D
S2144002B0BFF34F8FBFF36F8F00BF2C37BD465DF83F
S2144002C0047B704700ED00E080B483B000AF7860F8
S2144002D07B68072B25D801A252F823F0FD02400088
S2144002E003034000090340000F034000130340008F
S2144002F0170340001B0340001F0340004FF4FA431F
S21440030010E04FF400430DE04FF400430AE0084B82
S21440031008E0084B06E0084B04E0074B02E0064BBB
S21440032000E0002318460C37BD465DF8047B704756
S21440033000093D0000127A00001BB70080B500AFF0
S2144003400620054B9847024613469B0013449A00E6
S2144003501344184680BD00BFC902400080B500AFB8
S214400360024B98470346184680BD00BF3D034000F9
S21440037080B500AF024B984703465B08184680BDE1
S2144003803D03400080B582B000AF78607868034B8C
S214400390984700BF0837BD4680BD00BF9534400033
S2144003A080B500AF0A20084B98470B20064B98476D
S2144003B00C20054B98471020034B98471120024BC2
S2144003C0984700BF80BD00BF8503400080B48DB015
S2144003D000AF786039607B68FB623B68BB62FB6A53
S2144003E07B627B6A5A09FB6A3B623B6A03F01F03E7
S2144003F0012101FA03F3FA61BB61BB6A7B61FB69C9
S2144004003B613A69374B13445B02FB607B6903F000
S2144004100803002B03D0FB68BA695A6602E0FB6803
S214400420BA691A667B6903F01003002B04D0FB6898
S214400430BA69C3F8942003E0FB68BA69C3F8902011
S2144004407B6903F02003002B03D0FB68BA691A656A
S21440045002E0FB68BA695A657B6903F0C003002B6B
S21440046003D0FB68BA691A6202E0FB68BA695A624E
S2144004707B6903F08003002B04D0FB68BA69C3F89D
S214400480842003E0FB68BA69C3F880207B6903F0E8
S2144004900103002B06D0FB681A6FBB691A43FB6842
S2144004A01A6706E0FB681A6FBB69DB431A40FB68B5
S2144004B01A677B6903F00203002B06D0FB685A6F6D
S2144004C0BB691A43FB685A6706E0FB685A6FBB690C
S2144004D0DB431A40FB685A6700BF3437BD465DF8B9
S2144004E0047B70470707200080B48DB000AF78606B
S2144004F00B46FB707B68FB62FB7887F82B30FB6A09
S2144005007B627B6A3B623B6A5B09FB61FA69174B1D
S21440051013445B02BB6197F82B30012B09D1FB6A71
S2144005207B617B6903F01F0301229A40BB691A6115
S2144005300CE097F82B30002B08D1FB6A3B613B69F7
S21440054003F01F0301229A40BB695A61FB6AFB60B5
S214400550FB6803F01F0301229A40BB69C3F8A02042
S21440056000BF3437BD465DF8047B70470707200060
S21440057080B400AF054A054B9B6A43F48073936290
S21440058000BFBD465DF8047B704700BF0040084092
S21440059080B58CB000AF78603960494B98470346C9
S2144005A07B623B681B68BB623B689B68FB623B6840
S2144005B01B68FB603B685B683B613B689B687B6194
S2144005C03B68DB68BB610023FB617B683D4A934226
S2144005D008D107203C4B984707F124031946786812
S2144005E03A4B98477B683A4A934208D10820364BA4
S2144005F0984707F1240319467868344B98477B6838
S214400600344A934208D12C202F4B984707F12403B5
S214400610194678682D4B98477B682F4A934208D1F5
S2144006202D20294B984707F1240319467868274B15
S21440063098477B68294A934211D10D20224B984710
S2144006401F4B9847024607F10C0319467868244B1F
S21440065098477868234B98477868234B98477B6839
S214400660224A934211D10E20174B9847144B984775
S214400670024607F10C0319467868194B9847786884
S214400680184B98477868184B98477B68184A9342A7
S21440069011D10F200C4B9847094B9847024607F15B
S2144006A00C03194678680E4B984778680D4B984768
S2144006B078680D4B984700BF3037BD4680BD00BFB9
S2144006C07103400000080E40850340001D3C40007A
S2144006D0000A0E40001A0E40001C0E400040024029
S2144006E0B53D4000393E40006D3E4000008002402F
S2144006F000C0024080B582B000AF78600B46FB7009
S2144007007B68364A93420AD100BFFB781946786820
S214400710334B98470346002BF7D101235AE07B68BA
S214400720304A93420AD100BFFB78194678682C4B72
S21440073098470346002BF7D101234BE07B682A4AB3
S21440074093420AD100BFFB7819467868244B9847F5
S2144007500346002BF7D101233CE07B68234A9342B3
S2144007600AD100BFFB78194678681D4B9847034668
S214400770002BF7D101232DE07B681D4A93420AD116
S21440078000BFFB78194678681A4B98470346002BFB
S214400790F7D101231EE07B68174A93420AD100BF77
S2144007A0FB7819467868134B98470346002BF7D1D9
S2144007B001230FE07B68114A93420AD100BFFB78C1
S2144007C0194678680B4B98470346002BF7D1012310
S2144007D000E0002318460837BD4680BD00080E409E
S2144007E0753C4000000A0E40001A0E40001C0E40A9
S2144007F000400240D93E40000080024000C0024017
S21440080080B584B000AF786039600023FB607B68B9
S214400810344A934207D100BF39687868324B9847CC
S2144008200346002BF8D17B68304A934207D100BF7D
S214400830396878682C4B98470346002BF8D17B687C
S2144008402B4A934207D100BF39687868264B9847B1
S2144008500346002BF8D17B68264A934207D100BF57
S21440086039687868204B98470346002BF8D17B6858
S214400870214A93420DD100BF07F10C031946786810
S2144008801E4B98470346002BF6D1FB68DAB23B680E
S2144008901A707B681A4A93420DD100BF07F10C03C9
S2144008A019467868154B98470346002BF6D1FB68E7
S2144008B0DAB23B681A707B68124A93420DD100BF89
S2144008C007F10C03194678680C4B98470346002BF3
S2144008D0F6D1FB68DAB23B681A7000BF1037BD46E7
S2144008E080BD00BF00080E40A53C4000000A0E40F8
S2144008F0001A0E40001C0E40004002400B3F4000D5
S2144009000080024000C0024080B582B000AF7860F0
S21440091039600F4A7B6813600E4B0F4A1A600F4BC4
S2144009200F4A1A60396878680E4B98470E4B1B681A
S2144009309B68002118460D4B98470B4B1B685B681D
S21440094000211846094B984700BF0837BD4680BD72
S214400950600E40205C0E4020F5064000580E4020B9
S214400960010840009105400010004020F14A400038
S21440097080B483B000AF78603960044B01221A70AF
S21440098000BF0C37BD465DF8047B7047180E40200C
S21440099080B500AF01210248024B984700BF80BD9A
S2144009A000C00040B73B400080B582B000AF012198
S2144009B00F48104B9847786001210D480E4B9847DA
S2144009C07B6807EE903AF8EE677A9FED0C7A67EE12
S2144009D0877A9FED0B7A67EE877AFDEEE77A17EE19
S2144009E0903A3B603B6818460837BD4680BD00BF1E
S2144009F000C00040FB3B4000D93B400000007A442A
S214400A00B6F3FD3C80B586B000AF786001237B61CD
S214400A10084B98473861084B9847F8601820074BB2
S214400A209847042201210648064B984700BF1837CE
S214400A30BD4680BD5D0340007103400095344000D4
S214400A4000C000407D3B400090B585B000AF084BED
S214400A503C460FCB84E80F000E20064B98473B469B
S214400A6019460548054B984700BF1437BD4690BD0C
S214400A7098954000850340000080024009094000E8
S214400A8090B583B002AF0A20134B984709224FF423
S214400A9000611248124B9847FA224FF400610F4803
S214400AA0104B98474FF400610C480F4B98470F4B3C
S214400AB0009350234FF400620A2108480C4CA0478C
S214400AC00A200C4B984701210A200B4B984700BF41
S214400AD00437BD4690BD00BF95344000000E0E4022
S214400AE0492B4000E5294000652D40007109400033
S214400AF0B9304000AD014000E101400090B585B0FE
S214400B0002AF78600C20074B98477A680023009322
S214400B1000234FF480710448044CA04700BF0C37B4
S214400B20BD4690BD9534400000120E40C92B400093
S214400B3090B585B000AF00210B20104B9847082198
S214400B400B200F4B98474FF4A0733B604FF4F07365
S214400B507B600C4BBB600B4BFB603B4618460A4B1E
S214400B60984740F2DF1340F23F1200210020074C26
S214400B70A04700BF1437BD4690BD00BFE904400003
S214400B80CD034000FCFCFC00C5224000652540002B
S214400B90F8B500AF284B9847284B9847284B9847BE
S214400BA0284B98470020284B9847284B9847284B77
S214400BB098470020274B98473E20274B9847274B7F
S214400BC09847034619462648264B9847264B98474B
S214400BD0264B9847214B9847034619464FF000024C
S214400BE00B461446DB1844EB04045B1844EB020443
S214400BF0660146EAD3665D015B1944EB06045B1862
S214400C0044EB020441F22B714FF000025D1844EBB6
S214400C10020628463146164C41F22C724FF000032D
S214400C20A04703460C461846124B9847124B0022E4
S214400C301A7000BFF8BD00BFD51040009D1B400095
S214400C40A1034000810A4000FD0A4000490A4000D6
S214400C50310B4000050A4000953440005D034000DB
S214400C608C954000E5354000710540003502400057
S214400C70C145400001004020180E402080B489B095
S214400C8000AFF860B9607A603B6000237B61002368
S214400C903B610023FB613EE00023BB6134E07B699F
S214400CA0BA68D118FA6913469B0013449B011A464A
S214400CB0FB681A44BB6913441B780B707B6901338D
S214400CC0BA68D118FA6913469B0013449B011A462A
S214400CD0FB681A44BB6913441B780B707B6902336C
S214400CE0BA68D118FA6913469B0013449B011A460A
S214400CF0FB681A44BB6913441B780B707B6903334B
S214400D007B61BB690133BB61BA697B689A42C6DBCB
S214400D10FB690133FB61FA693B689A42BCDB00BF62
S214400D202437BD465DF8047B7047000090B5A7B0F9
S214400D3002AF786039604FF0E043C7F88C304FF42C
S214400D40A0734FF4A072D7F88C107868184CA04760
S214400D50D7F88C3000934FF4A0734FF4A072502114
S214400D600020144CA0471448144B98474FF4E173A6
S214400D7040F23F124FF4C8710020114CA0473B6828
S214400D80002B11D00F480D4B984707F10C033A68DB
S214400D900D4918460D4B984707F10C031A464FF479
S214400DA0CD7105200A4B984700BF9437BD4690BD8D
S214400DB07D0C400075274000FCFCFC0039244000B8
S214400DC0652540004460FC00A8954000914C4000DA
S214400DD01527400080B582B000AF78607B68072B4F
S214400DE031D801A252F823F0450E4000090E4000CB
S214400DF0110E4000190E4000210E4000290E400002
S214400E00310E40003B0E40000020114B98471AE040
S214400E1001200F4B984716E000200E4B984712E0F3
S214400E2010200C4B98470EE020200A4B98470AE0CB
S214400E303E210020084B984705E03E210120064B06
S214400E40984700E000BF00BF0837BD4680BD00BFE2
S214400E50D13240003D334000AD33400080B582B0D3
S214400E6000AF78607B68072B26D801A252F823F0A3
S214400E70910E4000950E4000950E4000A70E400093
S214400E80A70E4000A70E4000A70E4000A70E400049
S214400E90012312E00B4B98470346002B14BF012357
S214400EA00023DBB209E0084B98470346002B14BFEB
S214400EB001230023DBB200E0002318460837BD4676
S214400EC080BD00BF093340002534400080B483B065
S214400ED000AF78607B68072B25D801A252F823F034
S214400EE0010F4000070F40000D0F4000130F400059
S214400EF0170F40001B0F40001F0F4000230F4000FD
S214400F004FF4FA4310E04FF400430DE04FF4004333
S214400F100AE0084B08E0084B06E0084B04E0074BA5
S214400F2002E0064B00E0002318460C37BD465DF84D
S214400F30047B704700093D0000127A00001BB70092
S214400F4080B582B000AF0346FB7100BFFB79184600
S214400F50054B9847034683F00103DBB2002BF5D1DF
S214400F6000BF0837BD4680BD5D0E400080B586B0E8
S214400F7000AFF8607A603B600B46FB727B68002BE4
S214400F8007D13B68002B04D1FB684FF470021A600F
S214400F9019E0FB7A18460E4B984702467B68B2FB30
S214400FA0F3F37B617B693A6802FB03F37B613B6842
S214400FB0013B1A04074B13407A68D2B2134343F4FA
S214400FC07C52FB681A6000BF1837BD4680BD00BF24
S214400FD0CD0E40000000FF0780B582B000AF7860BD
S214400FE039603B68002B08D1094B9847094A7B6813
S214400FF01B6843F00053936205E0064A7B681B6813
S21440100043F48033D36100BF0837BD4680BD00BF80
S2144010104134400000060E4080B582B000AF786094
S2144010207B68002B03D1054B9847034602E0044BF0
S2144010309847034618460837BD4680BD5D34400095
S2144010407934400080B582B000AF0346FB71FB792F
S214401050033B042B08D8FB791846064B9847FB7988
S2144010601846054B984700E000BF00BF0837BD460E
S21440107080BD00BFD50D4000410F400080B582B016
S21440108000AF786000BF7868044B98470346002B53
S214401090F9D0002318460837BD4680BD19104000D9
S2144010A080B500AF0620054B9847024613469B0086
S2144010B013449A001344184680BD00BFCD0E40002E
S2144010C080B500AF024B98470346184680BD00BF28
S2144010D0A110400090B583B000AF1348134B98471B
S2144010E00620134B9847381D192301220621114C20
S2144010F0A0473B1D002118460F4B984700200F4B3A
S214401100984702200E4B984700200E4B98470E4BB0
S21440111098470E4B984703461846044B984700BFDF
S2144011200C37BD4690BD00BF00A3E1110942400008
S214401130451040006D0F4000D90F40007D10400024
S214401140D13140004D324000A1404000C110400027
S21440115080B483B000AF78607B68072B25D801A2A7
S21440116052F823F0851140008B1140009111400049
S214401170971140009B1140009F114000A311400072
S214401180A71140004FF4FA4310E04FF400430DE03F
S2144011904FF400430AE0084B08E0084B06E0084BD3
S2144011A004E0074B02E0064B00E0002318460C37ED
S2144011B0BD465DF8047B704700093D0000127A008A
S2144011C0001BB70080B500AF0620054B9847024687
S2144011D013469B0013449A001344184680BD00BF34
S2144011E05111400080B500AF024B984703465B085C
S2144011F0184680BDC511400080B483B000AF78600B
S2144012007B6880221A6000BF0C37BD465DF8047BC1
S214401210704780B483B000AF78607B685B6843F00B
S21440122001027B685A6000BF0C37BD465DF8047B00
S214401230704780B483B000AF78607B685B6823F00B
S21440124002027B685A6000BF0C37BD465DF8047BDF
S214401250704780B483B000AF78607B685B6823F0EB
S21440126004027B685A6000BF0C37BD465DF8047BBD
S214401270704780B483B000AF78607B685B6803F0EB
S2144012800403002B01D0012300E0002318460C374E
S214401290BD465DF8047B704780B483B000AF78608D
S2144012A07B685B6843F010027B685A6000BF0C376F
S2144012B0BD465DF8047B704780B483B000AF78606D
S2144012C07B685B6823F080027B685A6000BF0C37FF
S2144012D0BD465DF8047B704780B483B000AF78604D
S2144012E00B467B807A887B68DA6000BF0C37BD4649
S2144012F05DF8047B704780B483B000AF78607B684D
S2144013009B689BB218460C37BD465DF8047B704719
S21440131080B483B000AF78607B681B6903F002033B
S214401320002B01D0012300E0002318460C37BD46B1
S2144013305DF8047B704780B483B000AF78607B680C
S2144013401A6940F20123134040F20122934201D130
S214401350012300E0002318460C37BD465DF8047BA9
S2144013607047000080B582B000AF78600B46FB70D7
S214401370FB789BB219467868024B984700BF0837FF
S214401380BD4680BDD912400080B582B000AF7860BF
S21440139039607868044B98470346DAB23B681A705F
S2144013A000BF0837BD4680BDF712400080B582B00A
S2144013B000AF78607868104B984778680F4B98472E
S2144013C078680F4B984778680E4B984778680E4B6E
S2144013D09847002178680D4B984778680C4B98479B
S2144013E078680C4B9847002178680B4B984700BFAD
S2144013F00837BD4680BD00BFD5374000F9114000D4
S2144014001312400099124000B912400011384000B3
S21440141033124000531240004538400090B587B024
S21440142000AFF860B9603B601346FB71204B9847AD
S2144014300346194638681F4B98470346FB82BB68ED
S214401440196801230122F8681B4CA047BB681B683B
S21440145000221946F868194B9847BB681B68FA8AF9
S214401460D2B21946F868164B9847BB681B680822E4
S2144014701946F868134B9847BB681968FB795B08B0
S214401480DBB21A46F868104B9847BB681968FB7978
S21440149003F00103002B0CBF01230023DBB21A46E6
S2144014A0F8680A4B984700BF1C37BD4690BD00BF42
S2144014B0E5114000853A40001F3B40003B3A400063
S2144014C0C13A400095394000F53840004539400063
S2144014D080B582B000AF786039607868104B984726
S2144014E00346002B0AD03B681B680F2B14D83B687A
S2144014F01B68194678680B4B98470DE03B681B689D
S214401500032B09D83B681B68012202FA03F3DB432E
S21440151019467868034B984700BF0837BD4680BDDC
S214401520731240001138400080B588B000AFF860B4
S214401530B9607A6043F69823FB610023BB6121E0E3
S21440154043F69823FB6107E0FB695A1EFA61002BBD
S21440155002D16FF0020319E0F8680E4B9847034635
S214401560002BF1D0BA68BB6913441B78FB75FB7D32
S2144015701946F868084B9847BB690133BB617B68DE
S214401580013B7B607B68002BDAD10023184620376E
S214401590BD4680BD111340006513400080B588B03D
S2144015A000AFF860B9607A6043F69823FB61002389
S2144015B0BB6138E043F69823FB6107E0FB695A1E9F
S2144015C0FA61002B02D16FF0020330E0F8681A4B44
S2144015D098470346002BF1D0FF21F868174B9847F1
S2144015E043F69823FB6107E0FB695A1EFA61002B1D
S2144015F002D16FF002031AE0F868114B9847034691
S214401600002BF1D007F117031946F8680D4B9847A1
S214401610BA68BB691344FA7D1A70BB690133BB6173
S2144016207B68013B7B607B68002BC3D10023184658
S2144016302037BD4680BD00BF1113400065134000F3
S214401640371340008913400080B586B000AFF8607D
S214401650B9607A6000237B61FB68002B12D04FF0A4
S214401660FF3313E00B4B1B680B4A1268B9681046F1
S2144016709847BB680133BB607B6901337B617B68FD
S214401680013B7B607B68002BECDC7B691846183797
S214401690BD4680BD580E4020600E402080B586B0C6
S2144016A000AFF860B9607A6000237B61FB68012B6D
S2144016B01ED0FB68022B1BD0FB68032B18D04FF0C4
S2144016C0FF3319E00E4B1A680E4B1868BB68591C5E
S2144016D0B9601B78194690470346002B02DA4FF054
S2144016E0FF3309E07B6901337B617B68013B7B60AC
S2144016F07B68002BE6D17B6918461837BD4680BD0F
S2144017005C0E4020600E402080B400AFBFF34F8F89
S214401710BFF36F8F094B0022C3F85022074A074B8E
S2144017205B6943F400335361BFF34F8FBFF36F8F52
S21440173000BFBD465DF8047B704700BF00ED00E08B
S21440174080B48BB000AF264BD3F88030FB61FB698A
S2144017505B0BC3F30E037B62FB6903F007030433A2
S214401760BB61FB69DB08C3F309037B617B69BB6034
S214401770BB68B3FA83F37B607B68DBB203F01F037E
S2144017803B61BFF34F8F7B693B623A6A3B6902FA23
S21440179003F319467A6ABB6902FA03F30B43FB600C
S2144017A00F4AFB68C2F860323B6A5A1E3A62002B08
S2144017B0EBD17B6A5A1E7A62002BE4D1BFF34F8F7F
S2144017C0074A074B5B6943F480335361BFF34F8F3F
S2144017D0BFF36F8F00BF2C37BD465DF8047B704764
S2144017E000ED00E080B582B000AF78607868034BCB
S2144017F0984700BF0837BD4680BD00BF95344000BF
S21440180080B500AF0A20084B98470B20064B9847F8
S2144018100C20054B98471020034B98471120024B4D
S214401820984700BF80BD00BFE517400080B489B030
S21440183000AF78607B68FB61FB69BB61BB695A0996
S214401840FB697B617B6903F01F03012101FA03F307
S2144018503A61FB603B69BB60BA68064B13445B0267
S2144018601A46FB68536000BF2437BD465DF8047BCC
S214401870704700BF0707200080B48DB000AF786087
S21440188039607B68FB623B68BB62FB6A7B627B6A53
S2144018905A09FB6A3B623B6A03F01F03012101FAC7
S2144018A003F3FA61BB61BB6A7B61FB693B613A69E2
S2144018B0374B13445B02FB607B6903F00803002B45
S2144018C003D0FB68BA695A6602E0FB68BA691A66D2
S2144018D07B6903F01003002B04D0FB68BA69C3F899
S2144018E0942003E0FB68BA69C3F890207B6903F054
S2144018F02003002B03D0FB68BA691A6502E0FB6838
S214401900BA695A657B6903F0C003002B03D0FB68B5
S214401910BA691A6202E0FB68BA695A627B6903F0E8
S2144019208003002B04D0FB68BA69C3F8842003E028
S214401930FB68BA69C3F880207B6903F00103002B7B
S21440194006D0FB681A6FBB691A43FB681A6706E045
S214401950FB681A6FBB69DB431A40FB681A677B69F2
S21440196003F00203002B06D0FB685A6FBB691A438C
S214401970FB685A6706E0FB685A6FBB69DB431A4050
S214401980FB685A6700BF3437BD465DF8047B704736
S2144019900707200080B48DB000AF78600B46FB7020
S2144019A07B68FB62FB7887F82B30FB6A7B627B6A3E
S2144019B03B623B6A5B09FB61FA69174B13445B0267
S2144019C0BB6197F82B30012B09D1FB6A7B617B69A1
S2144019D003F01F0301229A40BB691A610CE097F896
S2144019E02B30002B08D1FB6A3B613B6903F01F0399
S2144019F001229A40BB695A61FB6AFB60FB6803F0B0
S214401A001F0301229A40BB69C3F8A02000BF3437A9
S214401A10BD465DF8047B70470707200080B48BB056
S214401A2000AF78600B46FB707B687B62FB7887F87C
S214401A3023307B6AFB61FB69BB61BB695B097B61E9
S214401A407A69104B13445B023B6197F82330002BB6
S214401A5009D07B6AFB60FB6803F01F0301229A40B3
S214401A603B691A6308E07B6ABB60BB6803F01F03F0
S214401A7001229A403B695A6300BF2C37BD465DF849
S214401A80047B70470707200080B48DB000AF7860B5
S214401A900B46FB707B68FB62FB7887F82B30FB6A53
S214401AA07B627B6A5A09FB6A3B623B6A03F01F0310
S214401AB0012101FA03F3FA61BB6197F82B30FB75FD
S214401AC0FB693B613A69234B13445B02FB60FB7D39
S214401AD0013B032B2ED801A252F823F0111B4000E5
S214401AE0231B4000ED1A4000FF1A4000FB68BA690D
S214401AF0C3F8C420FB68BA69C3F8D0201FE0FB686F
S214401B00BA69C3F8C420FB68BA69C3F8D42016E0A3
S214401B10FB68BA69C3F8C020FB68BA69C3F8D0202E
S214401B200DE0FB68BA69C3F8C020FB68BA69C3F821
S214401B30D42004E0FB68BA69C3F8B42003E0FB682D
S214401B40BA69C3F8B02000BF3437BD465DF8047BA1
S214401B50704700BF0707200080B400AFBFF34F8F29
S214401B60BFF36F8F0C4A0C4BD3F8903223F001032F
S214401B70C2F89032084A084BD3F8943223F0010357
S214401B80C2F89432BFF34F8FBFF36F8F00BFBD468E
S214401B905DF8047B704700BF00ED00E098B500AFED
S214401BA0B04B4FF400425A60AF4B9847AF4B984704
S214401BB0AF4BB04A5A60AE4BAF4A5A60AF4B9847AD
S214401BC0AF4B984701214820AE4B9847012148200B
S214401BD0AD4B984700210B20AA4B984788210B20F5
S214401BE0AA4B984702210B20A94B98470021152065
S214401BF0A64B98471520A74B9847A74AA64BD3F81D
S214401C00143143F01003C2F81431032124209F4BB3
S214401C10984724209F4B9847002103209B4B98478A
S214401C2003209C4B984700210420984B984704205B
S214401C30984B984700234FF400524FF06051974816
S214401C40974CA04700234FF080424FF06051934896
S214401C50934CA0470123FF224FF000618F48904CE1
S214401C60A04701233F224FF000618E488C4CA0478E
S214401C7001234FF4C0324FF000618B48884CA04798
S214401C8001234FF480724FF000618448844CA04793
S214401C9001234FF400624FF000618048804CA0471B
S214401CA001234FF400224FF0006180487C4CA0474F
S214401CB000234FF400724FF080517848784CA0478C
S214401CC04FF4007175487A4B98474FF0C051142036
S214401CD0784B98474FF0C0517720764B98474FF057
S214401CE0C0516E20734B98474FF000614F20714BA8
S214401CF098474FF0C05170206E4B98474FF0C051F8
S214401D0071206C4B98474FF0C0517D20694B9847E7
S214401D104FF000615220674B98474FF0C0516F20FC
S214401D20644B98474FF000615420624B98474FF001
S214401D30006155205F4B98474FF0006156205D4B41
S214401D4098474FF0006157205A4B98474FF0006134
S214401D505820584B98474FF000615920554B9847AC
S214401D604FF000615A20534B98474FF000615B207C
S214401D70504B98474FF000615C204E4B98474FF0D1
S214401D8000615D204B4B98474FF0C0516D20494B4A
S214401D9098474FF000614020464B98474FF000610F
S214401DA04120444B98474FF000614220414B9847B2
S214401DB04FF0006143203F4B98474FF0006144206E
S214401DC03C4B98474FF0006145203A4B98474FF0C0
S214401DD000614620374B98474FF000614720354B0F
S214401DE098474FF000618020324B98474FF0006193
S214401DF08120304B98474FF0006182202D4B98470A
S214401E004FF0006183202B4B98474FF000618420B1
S214401E10284B98474FF000618520264B98474FF057
S214401E2000610F20234B98474FF000611020214B54
S214401E309847194B1022C3F824214FF08051742044
S214401E401C4B98474FF0805175201A4B98474FF0DF
S214401E5080517620174B98474FF080517920154B8C
S214401E60984729E050180E40091740004117400097
S214401E70000C0E400C08005A0C07005A591B400034
S214401E8001184000951940001D1A4000791840007E
S214401E90891A40002D1840000080084000120E406D
S214401EA02D2C400000160E40000E0E4000140E4032
S214401EB01D2A40002D2E40004FF060510320084B55
S214401EC098474FF060512320054B98474FF060519C
S214401ED00020034B98470020024B984700BF98BD10
S214401EE02D2E4000CD2D400080B483B000AF7860EA
S214401EF07B6801221A6000BF0C37BD465DF8047B44
S214401F00704780B483B000AF786039607B683A68C9
S214401F105A6100BF0C37BD465DF8047B7047000031
S214401F2090B583B000AF23200A4B98470023012288
S214401F302C210948094CA04700237B6002E07B68BF
S214401F4001337B607B68FE2BF9D900BF0C37BD465A
S214401F5090BD00BFFD2D4000008000407538400019
S214401F6080B584B000AF786039602320094B98472D
S214401F703A6879680848094B98470023FB6002E0B6
S214401F80FB680133FB60FB68FE2BF9D900BF1037B6
S214401F90BD4680BDCD2D4000008000402915400044
S214401FA090B587B000AF0346B9607A60FB732320D4
S214401FB0144B9847FB7B99B2002301221248134CDE
S214401FC0A04700237B6102E07B6901337B617B692C
S214401FD0FE2BF9D97B68002B10D023200C4B98475A
S214401FE07A68B96808480B4B984700237B6102E043
S214401FF07B6901337B617B695E2BF9D900BF1C3757
S214402000BD4690BDFD2D4000008000407538400024
S214402010CD2D40002915400080B584B000AF002388
S214402020BB608123BB7000237B700323FB6048E0CA
S214402030BB1C01221946FB20264B9847BB78013330
S214402040DBB2BB7000237B6002E07B6801337B60C1
S2144020507B68FE2BF9D900220021D3201D4B9847E0
S21440206023201D4B9847FB1C012219461B481C4B3E
S214402070984700237B6002E07B6801337B607B6887
S214402080FE2BF9D9FB781A46FB68013BDB0002FAC7
S21440209003F31A46BB681343BB607B1C01221946F8
S2144020A0FB200C4B984700237B6002E07B680133A3
S2144020B07B607B6840F6FE729342F7D9FB68013B33
S2144020C0FB60FB68002BB3D1BB6818461037BD4693
S2144020D080BD00BFA11F4000CD2D400000800040C5
S2144020E09D15400080B485B000AF78600023FB604B
S2144020F00CE00023FB6002E0FB680133FB60FB68FA
S214402100074A9342F8D9FB680133FB60FA687B685C
S2144021109A42EED300BF1437BD465DF8047B704745
S2144021209F86010080B487B000AFF860B9607A60DF
S2144021303B60FB681B68B3F5A07F03D3FB6840F2A7
S2144021403F121A607B681B68B3F5A07F03D37B6899
S21440215040F23F121A60BB681B68B3F5F07F03D3AA
S214402160BB6840F2DF121A603B681B68B3F5F07F2D
S21440217003D33B6840F2DF121A60FB681A687B683C
S2144021801B689A4209D9FB681B687B617B681A68A2
S214402190FB681A607B687A691A60BB681A683B6895
S2144021A01B689A4209D9BB681B687B613B681A6802
S2144021B0BB681A603B687A691A6000BF1C37BD4628
S2144021C05DF8047B7047000080B584B000AF0346DE
S2144021D0FB71FB79002B02D0E823FB7301E0482318
S2144021E0FB7307F10F03012219463620024B98472E
S2144021F000BF1037BD4680BDA11F400090B587B0D8
S21440220000AF0446084611461A462346FB8003465E
S214402210BB800B467B8013463B8000237B610423B8
S2144022207B61FB887B827A88FB8813449BB2013BA8
S2144022309BB23B82BB88FB813A88BB8813449BB2E7
S214402240013B9BB2BB8107F112035B783B7207F1FF
S21440225012031B787B7207F110035B78BB7207F1A1
S21440226010031B78FB7207F108037A6919462A2087
S214402270134B9847002200210020114B984707F146
S2144022800E035B783B7207F10E031B787B7207F1F7
S2144022900C035B78BB7207F10C031B78FB7207F1EB
S2144022A008037A6919462B20054B984700220021DF
S2144022B00020034B984700BF1C37BD4690BD00BF6B
S2144022C0A11F400090B589B002AF78600123FB6043
S2144022D04348444B984707F10C0100230093424B78
S2144022E003223F48414CA047002201213C48404B36
S2144022F0984707F10C03194639483E4B98473848EB
S2144023003D4B9847012136483C4B984700220021D8
S21440231001203B4B9847C8203A4B98470022002163
S2144023201120374B9847C820364B9847364B98472E
S21440233078617B6949F28842934201D001234AE0A2
S2144023404823FB7407F113030122194636202C4B11
S214402350984764202B4B98470423FB7407F11303DC
S21440236001221946CF20264B98476420254B984794
S2144023700623FB7407F11303012219463A20204B2B
S214402380984764201F4B98470022002113201C4B7F
S214402390984764201B4B98471C4B98476420194B22
S2144023A0984700201A4B98476420164B98477B68FE
S2144023B01B689AB27B685B689BB200210020154C74
S2144023C0A0477B689B681846134B9847002100201F
S2144023D0124B9847002318461C37BD4690BD00BF99
S2144023E000800040AD134000002D31011D14400018
S2144023F095394000D1144000E91E4000031F4000BC
S214402400A11F4000E5204000192040002124400044
S214402410C9214000FD214000392440008D24400061
S21440242080B500AF002200212920024B984700BF0C
S21440243080BD00BFA11F400080B485B000AF78606B
S2144024400023FB6016E0FB685A1CFA607A68120CA0
S214402450D1B20D4AD154FB685A1CFA607A68120A07
S214402460D1B2094AD154FB685A1CFA607A68D1B294
S214402470054AD154FB68B3F5707FE4D300BF1437E8
S214402480BD465DF8047B7047DC09402080B584B0CB
S21440249000AF03460A46FB801346BB800023FB6022
S2144024A00423FB60BB1D5B783B72BB1D1B787B72B5
S2144024B0BB1D5B78BB72BB1D1B78FB7207F1080324
S2144024C0FA6819462A20114B98470022002100201E
S2144024D00E4B98473B1D5B783B723B1D1B787B72CF
S2144024E03B1D5B78BB723B1D1B78FB7207F10803F4
S2144024F0FA6819462B20054B9847002200210020F9
S214402500024B984700BF1037BD4680BDA11F400014
S21440251080B582B000AF786039607B68B3F5A07F45
S21440252003D23B68B3F5F07F01D301230EE07B680E
S2144025309BB23A6892B211461846064B9847064BED
S214402540984703210548064B984700231846083706
S214402550BD4680BD8D244000211F4000DC09402040
S214402560611F400090B587B000AFF860B9607A60F0
S2144025703B603B463A1D07F1080107F10C002A4C28
S214402580A047FB6898B2BB6899B27B689AB2FB6872
S2144025909BB2D31A9BB201339CB23B689AB2BB68DB
S2144025A09BB2D31A9BB201339BB222461F4CA04724
S2144025B01F4B98477A68FB68D31A01333968BA6864
S2144025C08A1A013202FB03F33B613B69194AA2FBBC
S2144025D003231B0A7B6104E04FF470711648174BC7
S2144025E098477B695A1E7A61002BF5D13969114BA1
S2144025F0A3FB01231A0A13469B0013449B01CA1AE5
S21440260013465B00134419460B480C4B98474FF44F
S214402610F0734FF4A07200210020044CA04700BF86
S2144026201C37BD4690BD00BF25214000FD2140001F
S214402630211F4000CDCCCCCCDC094020611F40009F
S21440264080B58AB000AFF860B9601346FB71FA797E
S21440265013469B0013449B00A3F52073FB610023A5
S2144026603B624BE03B6A5A00FB691344BB61BB6963
S21440267001337B6100237B6219E0244ABB69134423
S2144026801B781A467B6AC3F1070342FA03F303F04A
S2144026900103002B08D0FA683B6AD018BA687B6AF8
S2144026A0134419461A4B98477B6A01337B627B6A10
S2144026B0072BE2D900237B621AE0144A7B69134455
S2144026C01B781A467B6AC3F1070342FA03F303F00A
S2144026D00103002B09D0FA683B6AD018BA687B6AB7
S2144026E01344083319460A4B98477B6A01337B628A
S2144026F07B6A052BE1D93B6A01333B623B6A092B77
S214402700B0D900BF2837BD4680BD00BFC095400049
S2144027101125400080B586B000AFF860B9607A6099
S214402720FB687B611CE07B681B780A2B08D10E2374
S2144027301A46BB6813440233BB607B69FB600CE0FF
S2144027407B681B781A46B968F868094B98470A238D
S2144027501A46FB6813440233FB607B6801337B6098
S2144027607B681B78002BDED100BF1837BD4680BD86
S2144027704126400090B58BB000AFF860B9607A60F3
S2144027803B60FB683B62BB68FB61FA687B6813444E
S214402790013BBB61BA683B681344013B7B6107F170
S2144027A0140307F1180207F11C0107F120001B4C27
S2144027B0A0473B6A98B2FB6999B2BB699AB23B6A3A
S2144027C09BB2D31A9BB201339CB27B699AB2FB6927
S2144027D09BB2D31A9BB201339BB22246104CA04701
S2144027E0BA693B6AD31A7969FA698A1A02FB03F313
S2144027F07B627A6A13465B0013441A46B96B2C20F8
S214402800084B98474FF4F0734FF4A0720021002015
S214402810034CA04700BF2C37BD4690BD2521400045
S214402820FD214000A11F400080B483B000AF786017
S2144028307B681B6B18460C37BD465DF8047B7047BB
S21440284080B483B000AF78607B68DB6A18460C378C
S214402850BD465DF8047B704780B483B000AF7860B7
S2144028607B68094A934201D1012306E07B68074A08
S214402870934201D1002300E0002318460C37BD46A2
S2144028805DF8047B704700BF0040064000C0034030
S21440289080B582B000AF03463960FB71FB790A49C8
S2144028A01A013B68134451F82330002B07D0FB79BC
S2144028B005491A013B68134451F82330984700BF36
S2144028C00837BD4680BD00BF640E402090B587B037
S2144028D000AF78607868284B984704467868274B5E
S2144028E0984703462340FB607868254B98473861F5
S2144028F000237B6139E07B690B2B0FD801227B6973
S21440290002FA03F31A46FB681340002B2AD03B69B1
S214402910DBB2796918461B4B984723E07B690E2B40
S21440292010D87B690C33012202FA03F31A46FB687F
S2144029301340002B16D03B69DBB279691846114B21
S21440294098470FE07B690F33012202FA03F31A46D9
S214402950FB681340002B05D03B69DBB2796918460B
S214402960084B98477B6901337B617B690F2BC2D943
S21440297000BF1C37BD4690BD292840004128400076
S214402980592840009128400080B500AF0248034BCC
S214402990984700BF80BD00BF00C00340CD28400020
S2144029A080B500AF0248034B984700BF80BD00BFCC
S2144029B000400640CD28400080B485B000AFF860A7
S2144029C0B9607A607B68002B03D0FB68BA685A66A9
S2144029D002E0FB68BA681A6600BF1437BD465DF869
S2144029E0047B704780B485B000AFF860B9607A6009
S2144029F0FB68BA68C3F884207B685B004FF40042EB
S214402A00B2FBF3F3013BC3F30D02FB68C3F88C2023
S214402A1000BF1437BD465DF8047B704780B483B072
S214402A2000AF786039607B683A681A6300BF0C373D
S214402A30BD465DF8047B704780B487B000AFF86051
S214402A40B9607A60FB687A685A64BB68B3F1C05F65
S214402A504AD0B3F1C05F08D8B3F1006F16D0B3F1D7
S214402A60805F2CD0002B69D064E0B3F1205F65D046
S214402A70B3F1205F03D8B3F1005F4AD05AE0B3F118
S214402A80405F5BD0B3F1605F58D053E0FB681B6F8C
S214402A907B61FB681A6F7B68D9437B690B401A40A1
S214402AA0FB681A67FB685B6F7B61FB685A6F7B68E5
S214402AB0D9437B690B401A40FB685A673AE0FB688B
S214402AC01B6F7B617A687B691A43FB681A67FB68F1
S214402AD05B6F7B61FB685A6F7B68D9437B690B40B1
S214402AE01A40FB685A6725E0FB681B6F7B61FB68F2
S214402AF01A6F7B68D9437B690B401A40FB681A679C
S214402B00FB685B6F7B617A687B691A43FB685A6730
S214402B1010E0FB681B6F7B617A687B691A43FB6831
S214402B201A67FB685B6F7B617A687B691A43FB6850
S214402B305A6700BFFB687A685A6000E000BF1C37DF
S214402B40BD465DF8047B704780B584B000AFF86042
S214402B50B9607A60B968F868194B98477B6803F0A3
S214402B6001031A46B968F868164B98477B6803F025
S214402B700A03002B03D0FB68BA681A6202E0FB68BF
S214402B80BA685A627B6803F00203002B04D0FB68E5
S214402B90BA68C3F8802008E07B6803F00803002B7F
S214402BA003D0FB68BA68C3F88420FB68BA685A61E9
S214402BB0FB68BA681A6000BF1037BD4680BD00BFCC
S214402BC0812D4000B929400080B584B000AFF86040
S214402BD0B9607A603B60B968F868124B9847BA6942
S214402BE0B968F868104B98473B68002B03D0FB68E1
S214402BF0BA681A6502E0FB68BA685A657B68002BBB
S214402C0003D0FB68BA681A6302E0FB68BA685A6386
S214402C10FB68BA681A61FB68BA681A6000BF10376A
S214402C20BD4680BD812D4000B929400090B587B093
S214402C3002AFF860B9607A603B60BB68B3F1005F92
S214402C4016D0B3F1005F09D8B3F1805F10D0B3F16E
S214402C50C05F0DD0B3F1006F0AD03DE0B3F1405FE6
S214402C601AD0B3F1605F17D0B3F1205F0ED033E0D7
S214402C707A68B968F8681C4B98473B6803F00103CC
S214402C801A467968F868194B984727E03A68796891
S214402C90F868174B984721E0BB68B3F1605F0CBFFC
S214402CA001230023DBB21A463B6803F00403002BE3
S214402CB014BF01230023DBB219463B6803F001032F
S214402CC0002B14BF01230023DBB200930B46796828
S214402CD0F868084CA04701E0002300E001231846AE
S214402CE01437BD4690BD00BF392A4000B929400080
S214402CF0492B4000C92B400080B485B000AFF86037
S214402D00B9607A607B6803F01003002B20D0FB6824
S214402D10BA68C3F8B0207B6803F02003002B04D0C9
S214402D20FB68BA68C3F8D42003E0FB68BA68C3F807
S214402D30D0207B6803F04003002B04D0FB68BA68C1
S214402D40C3F8C02008E0FB68BA68C3F8C42003E0B4
S214402D50FB68BA68C3F8B42000BF1437BD465DF8B8
S214402D60047B704780B483B000AF786039607B687E
S214402D703A681A6400BF0C37BD465DF8047B70475E
S214402D8080B483B000AF786039607B683A685A6434
S214402D9000BF0C37BD465DF8047B704780B483B0F7
S214402DA000AF78607B68DB6C18460C37BD465DF834
S214402DB0047B704780B483B000AF78607B689B6CC0
S214402DC018460C37BD465DF8047B704780B584B026
S214402DD000AF78607868084B9847F8607B6803F0E7
S214402DE01F03012202FA03F31A46FB681A6300BF68
S214402DF01037BD4680BD00BFDD2F400080B584B093
S214402E0000AF78607868084B9847F8607B6803F0B6
S214402E101F03012202FA03F31A46FB685A6300BFF7
S214402E201037BD4680BD00BFDD2F400090B587B04F
S214402E3002AF786039607868634B9847F8603B68C3
S214402E4003F0F043B3F1005F67D0B3F1005F09D8F9
S214402E50B3F1805F2BD0B3F1C05F43D0B3F1006FC6
S214402E600AD0A9E0B3F1405F7ED0B3F1605F7BD07B
S214402E70B3F1205F6CD09FE07B6803F01F03012214
S214402E8002FA03F31A464FF00061F8684F4B984732
S214402E907B6803F01F03012202FA03F319463B68DE
S214402EA003F001031A46F868494B984786E07B686A
S214402EB003F01F03012202FA03F31A464FF0805133
S214402EC0F868424B98477B6803F01F03012202FADA
S214402ED003F319463B6803F001031A46F8683C4B77
S214402EE098476BE07B6803F01F03012202FA03F366
S214402EF01A464FF0C051F868344B98477B6803F049
S214402F001F03012202FA03F319463B6803F001034C
S214402F101A46F8682E4B984750E07B6803F01F032C
S214402F20012202FA03F31A464FF00051F868274B85
S214402F3098477B6803F01F03012202FA03F3194601
S214402F403B6803F001031A46F868214B984735E082
S214402F507B6803F01F03012202FA03F33A6819461E
S214402F60F8681C4B984729E07B6803F01F03012252
S214402F7002FA03F319463B6803F06053B3F1605F0F
S214402F800CBF01230023DBB21A463B6803F0040360
S214402F90002B14BF01230023DBB218463B6803F026
S214402FA00103002B14BF01230023DBB2009303462A
S214402FB0F868094CA04701E0002300E001231846CA
S214402FC01437BD4690BD00BFDD2F4000392A400073
S214402FD0B9294000492B4000C92B400080B485B039
S214402FE000AF78607B685A09054B13445B02FB6070
S214402FF0FB6818461437BD465DF8047B704700BF33
S2144030000707200080B584B000AF786039607868E4
S214403010264B9847F8607868254B98470246FB68E9
S2144030201340FB60FB68002B3CD00023BB6034E0C1
S214403030204ABB681B0113441A683B689A4226D153
S2144030401C4ABB681B01134404331A68FB681340D0
S214403050002B1CD0174ABB681B0113440C331B685B
S2144030601449BA6812010A4410681249BA68120133
S2144030700A4404321268114698470E4ABB681B0140
S214403080134404331B68DB43FA681340FB60BB6899
S2144030900133BB60BB68062B03D8FB68002BC7D147
S2144030A000E000BF00BF1037BD4680BD9D2D4000EC
S2144030B0B52D40009C0D402080B586B000AFF8602E
S2144030C0B9607A603B60214B1B68062B01D901230F
S2144030D038E00023FB7511E0FB7D1B011C4A1344BE
S2144030E03B613B691A68BB689A4204D13B695A689F
S2144030F07B689A4208D0FB7D0133FB75FA7D134B03
S2144031001B689A42E8D900E000BF3B69BA681A607B
S2144031103B697A685A603B693A689A603B693A6AA2
S214403120DA60FA7D094B1B6801339A4204D1074B9B
S2144031301B680133054A13603A687968F868054B9E
S2144031409847002318461837BD4680BD0C0E4020D1
S2144031509C0D4020F92C400080B500AF0A21024863
S214403160024B984700BF80BD000E0E400530400021
S21440317080B500AF0B210248024B984700BF80BD88
S21440318000100E400530400080B500AF0C210248CC
S214403190024B984700BF80BD00120E4005304000ED
S2144031A080B500AF10210248024B984700BF80BD53
S2144031B000140E400530400080B500AF1121024893
S2144031C0024B984700BF80BD00160E4005304000B9
S2144031D080B483B000AF78607B68013B032B1AD87D
S2144031E001A252F823F000BFF9314000FF31400001
S2144031F0073240000F32400000237B600EE04FF461
S21440320080737B600AE04FF440737B6006E04FF4C7
S21440321000737B6002E000237B6000BF0A490A4BD4
S2144032201B6B23F440727B6813430B6300BF064B53
S2144032309B6E03F00803002BF9D000BF0C37BD4649
S2144032405DF8047B704700BF00060E4080B485B032
S21440325000AF78601D491D4B1B6B23F070027B68E6
S21440326013430B634FF48053FB6007E0FB68002B6F
S21440327001D1012323E0FB68013BFB60134B9B6EAF
S21440328003F00803002BF1D0104A104B1B6B23F0C1
S214403290030343F0020313634FF48053FB6007E0DD
S2144032A0FB68002B01D1012309E0FB68013BFB6072
S2144032B0064B9B6E03F00803002BF1D00023184604
S2144032C01437BD465DF8047B704700BF00060E40CD
S2144032D080B483B000AF78607B68012B05D1074986
S2144032E0064B9A68064B13438B60044B054A1A609C
S2144032F000BF0C37BD465DF8047B704710180E4083
S214403300000010A5080000A580B400AF094B5B691B
S21440331003F08003002B07D0074B9B6E03F080031F
S214403320002B01D0012300E000231846BD465DF87F
S214403330047B704710180E4000060E4080B483B0E1
S21440334000AF78601549154B1A6A154B13430B624C
S21440335000BF124B9B6E03F40033002BF9D00F498D
S2144033600E4B1A6A0F4B13407A68134343F45C13B0
S2144033700B6200BF094B9B6E03F40033002BF9D061
S2144033800649064B1A6A084B134043F45C130B621B
S21440339000BF0C37BD465DF8047B704700060E4004
S2144033A0080037008FFFC8FFFFFFC8FE80B483B019
S2144033B000AF786039607B68002B08D01349134B08
S2144033C01B6A134A1A40134B13430B6218E00F490B
S2144033D00E4B1A6A104B13403A68120292B21A43C6
S2144033E00E4B13430B6200BF084B9B6E03F001036A
S2144033F0002BF9D00549054B1A6A094B13430B625B
S21440340000BF0C37BD465DF8047B704700060E4093
S214403410FCFFC8FE02003701FCFFC8FF0100370072
S2144034200000370180B400AF044B9B6E03F480333A
S2144034301846BD465DF8047B704700BF00060E4048
S21440344080B400AF044B4FF000529A6200BFBD46B6
S2144034505DF8047B704700BF00060E4080B400AFA6
S214403460044B9B6E03F002031846BD465DF8047B92
S214403470704700BF00060E4080B400AF044B9B6E02
S21440348003F040031846BD465DF8047B704700BF16
S21440349000060E4080B483B000AF78607B683F2B58
S2144034A001D901232FE07B681F2B13D8194B9A694B
S2144034B001217B6801FA03F31A4001217B6801FA77
S2144034C003F39A421ED0134A01217B6801FA03F3A4
S2144034D0136117E07B68203B7B600E4BD3F80821D6
S2144034E001217B6801FA03F31A4001217B6801FA47
S2144034F003F39A4206D0074A01217B6801FA03F398
S214403500C2F80031002318460C37BD465DF8047BF0
S214403510704700BF00060E4080B483B000AFEFF3A4
S21440352010837B607B68002B0CBF01230023DBB23B
S2144035303B6072B6BFF35F8F044B00221A703B6845
S21440354018460C37BD465DF8047B70470A0040209D
S21440355080B483B000AF78607B68002B14BF012333
S2144035600023DBB218460C37BD465DF8047B704737
S21440357080B582B000AF78607868074B98470346BE
S214403580002B05D0054B01221A70BFF35F8F62B641
S21440359000BF0837BD4680BD513540000A00402078
S2144035A080B584B000AF0346FB71FB790A4AD35C12
S2144035B0FF2B00D1FEE7094B9847F860FB79064A97
S2144035C0D25C0132D1B2044AD154F868044B9847D1
S2144035D000BF1037BD4680BD500E40201935400014
S2144035E07135400080B584B000AF786039604FF0E8
S2144035F0E043FB600020614B9847614A7B689B68CC
S21440360093605F4B00221A615D4B00225A62002392
S214403610BB6002E0BB680133BB603B68594AA2FB13
S21440362003239B0C4FF47A7202FB03F3564AA2FB29
S21440363003239A08BB689A42ECD8514B01221A6081
S214403640FB6800221A804E4B02221A60FB6800225A
S2144036501A800023BB6002E0BB680133BB603B6856
S214403660484AA2FB03239B0C4FF47A7202FB03F3F7
S214403670454AA2FB03239A08BB689A42ECD8404BC3
S21440368004221A60FB6801221A803D4B04221A600D
S214403690FB6802221A803A4B04221A60FB68032217
S2144036A01A80374B04221A60FB6804221A80344B77
S2144036B004221A60FB6805221A80314B04221A60E5
S2144036C0FB6806221A802E4B04221A60FB680722EB
S2144036D01A802B4B04221A60FB6808221A80284B5B
S2144036E003221A607B685B685B00FA6813444CF6FA
S2144036F0FE221A800023BB6002E0BB680133BB6039
S2144037003B68204AA2FB03239B0C4FF47A7202FBD1
S21440371003F31D4AA2FB03239A08BB689A42ECD8DF
S214403720174B05221A607B681B68022202FA03F3D5
S214403730FA68134400221A80114B00221A60FB6874
S21440374000221A803B68114AA2FB03239B09BB60F8
S214403750BB6843F6095202FB03F3BB60BB68094AE9
S214403760A2FB03239B0CBB60054ABB68C3F30B0359
S214403770536000BF1037BD4680BD00BFA135400036
S2144037800040084083DE1B43ABAAAAAAD34D621072
S21440379080B483B000AF78607B685B6803F0020358
S2144037A0002B01D0012300E0002318460C37BD460D
S2144037B05DF8047B7047000080B582B000AF78604B
S2144037C07868034B984700BF0837BD4680BD00BFAA
S2144037D09534400080B582B000AF78607B68094A77
S2144037E0934203D11520084B984706E07B68074A6A
S2144037F0934202D12A20044B984700BF0837BD4663
S21440380080BD00BF00800040B937400000800540C2
S21440381080B483B000AF786039607B685B6823F41F
S21440382070227B685A607B685A683B681B0403F4C6
S21440383070231A437B685A6000BF0C37BD465DF85C
S214403840047B704780B483B000AF786039607B6893
S2144038505B6823F07F427B685A607B685A683B68A7
S2144038601B061A437B685A6000BF0C37BD465DF89E
S214403870047B704780B584B000AF78600846114638
S2144038801A4603467B800B467B7013463B7043F6D6
S2144038909823FB6006E0FB685A1EFA60002B01D1B5
S2144038A0012320E07B681B6903F00203002BF2D063
S2144038B078680F4B98470346002B0ED07A887B7863
S2144038C01B0403F470231343BB603B78002B06D0E5
S2144038D0BB6843F08073BB6001E07B88BB607B685D
S2144038E0BA68DA60002318461037BD4680BD00BF70
S2144038F09137400080B485B000AFF860B9607A6018
S2144039007B68002B0CD0FB68BA680C3253F8223028
S21440391043F00101FB68BA680C3243F822100BE012
S214403920FB68BA680C3253F8223023F00101FB687A
S214403930BA680C3243F8221000BF1437BD465DF813
S214403940047B704780B485B000AFF860B9607A6099
S2144039507B68002B0CD0FB68BA680C3253F82230D8
S21440396043F00201FB68BA680C3243F822100BE0C1
S214403970FB68BA680C3253F8223023F00201FB6829
S214403980BA680C3243F8221000BF1437BD465DF8C3
S214403990047B704780B485B000AFF860B9607A6049
S2144039A07B68042B18D1FB68BA680C3253F8223077
S2144039B023F00801FB68BA680C3243F82210FB6813
S2144039C0BA680C3253F8223043F00401FB68BA68F8
S2144039D00C3243F822102AE07B68002B18D1FB6893
S2144039E0BA680C3253F8223023F00801FB68BA68F4
S2144039F00C3243F82210FB68BA680C3253F8223077
S214403A0023F00401FB68BA680C3243F822100EE03B
S214403A107B68082B0BD1FB68BA680C3253F822300F
S214403A2043F00801FB68BA680C3243F8221000BF26
S214403A301437BD465DF8047B704780B485B000AF50
S214403A40F860B9607A60FB68BA680C3253F8223086
S214403A5023F0F001FB68BA680C3243F82210FB688A
S214403A60BA680C3253F822207B6842EA0301FB68AE
S214403A70BA680C3243F8221000BF1437BD465DF8D2
S214403A80047B704780B485B000AF786039603A6890
S214403A907B6813445A1E7B68B2FBF3F3FB60FB68FB
S214403AA0002B02DDFB68FF2B02DD4FF0FF3301E009
S214403AB0FB681BB218461437BD465DF8047B70475A
S214403AC080B485B000AFF860B9601346FB71FB79EF
S214403AD0002B02D14FF0FF331BE0FB68BA680C3274
S214403AE053F8223023F47F41FB68BA680C3243F81F
S214403AF02210FB68BA680C3253F82220FB791B026E
S214403B009BB242EA0301FB68BA680C3243F82210C3
S214403B10002318461437BD465DF8047B704780B4D2
S214403B2085B000AFF860B96011461A460B46FB7187
S214403B301346BB71FB68BA680C3253F8223099B210
S214403B40FB68BA680C3243F82210FB68BA680C323D
S214403B5053F82220FB791B0403F47F03B979090646
S214403B600B4342EA0301FB68BA680C3243F8221062
S214403B7000BF1437BD465DF8047B704780B487B0FD
S214403B8000AFF860B9607A60FA68BB689B0113447E
S214403B907B617B6902221A607B694FF0FF329A6232
S214403BA07B691B6A7B697A685A6000BF1C37BD46D2
S214403BB05DF8047B704780B483B000AF78603960AE
S214403BC07A683B689B01134405221A6000BF0C3795
S214403BD0BD465DF8047B704780B483B000AF786024
S214403BE039607A683B689B01134402221A6000BF22
S214403BF00C37BD465DF8047B704780B483B000AF99
S214403C00786039607A683B689B01134410331B68C0
S214403C1018460C37BD465DF8047B704780B485B0C7
S214403C2000AF786039600023FB607B68AC221A6086
S214403C303B681A683B685B68B2FBF3F31B09FB60A2
S214403C40FB68002B03D0FB68B3F5803F01D301230C
S214403C500AE07B68FA681A623B689A687B685A6032
S214403C607B6850221A60002318461437BD465DF81C
S214403C70047B704780B483B000AF78600B46FB701F
S214403C807B685B6903F00203002B01D1012303E04C
S214403C90FA787B68DA61002318460C37BD465DF833
S214403CA0047B704780B483B000AF786039607B682F
S214403CB05B6903F00103002B01D1012305E07B681B
S214403CC09B69DAB23B681A70002318460C37BD462B
S214403CD05DF8047B704780B489B000AFF860B96087
S214403CE07A60BB681A017B689A4202D81023FB614F
S214403CF001E00823FB617B68DA00FB69B96801FBD9
S214403D0003F35B081A44FB69B96801FB03F3B2FB93
S214403D10F3F3BB61BB69DB087B61BB6903F0070358
S214403D203B617B69002B03D07B69B3F5803F01D3B1
S214403D3001230FE0FB69082B05D1FB685B6843F461
S214403D400022FB685A603B691A047B691A43FB6889
S214403D501A62002318462437BD465DF8047B704738
S214403D6080B582B000AF786078680D4B98477B6826
S214403D7000225A607B6800225A627B6800229A6260
S214403D807868084B98477868074B98477868074B99
S214403D9098477868064B984700BF0837BD4680BDB1
S214403DA0413F4000533E4000873E4000A13E400019
S214403DB0BD3E400080B584B000AFF860B9607A6020
S214403DC0F8681A4B98471A4B00221A60BB68002BBB
S214403DD009D0BB681B687A681946F868154B98473F
S214403DE00346002B01D001231BE0BB685A68BB6822
S214403DF09B681A43BB681B691A43BB68DB681A4357
S214403E000B4B1B6813430A4A1360094B1B68084A4E
S214403E101360FB685A68064B1B681A43FB685A6077
S214403E20002318461037BD4680BD00BF613D4000A8
S214403E30100E4020D73C400080B483B000AF78607E
S214403E407B6840221A6000BF0C37BD465DF8047B95
S214403E50704780B483B000AF78607B6888221A6071
S214403E6000BF0C37BD465DF8047B704780B483B016
S214403E7000AF78607B6810221A6000BF0C37BD46E2
S214403E805DF8047B704780B483B000AF78607B6891
S214403E9024221A6000BF0C37BD465DF8047B70478D
S214403EA080B483B000AF78607B684FF480721A604D
S214403EB000BF0C37BD465DF8047B704780B483B0C6
S214403EC000AF78607B684FF400221A6000BF0C3762
S214403ED0BD465DF8047B704780B483B000AF786021
S214403EE039607B685B6903F00203002B01D1012334
S214403EF005E03B68C3F308027B68DA610023184696
S214403F000C37BD465DF8047B704780B483B000AF85
S214403F10786039607B685B6903F00103002B01D150
S214403F20012306E07B689B69C3F308023B681A607E
S214403F30002318460C37BD465DF8047B70470000EA
S214403F4080B483B000AF78607B68044AC3F8E4204E
S214403F5000BF0C37BD465DF8047B704700415355A3
S214403F6080B483B000AFEFF310837B607B68002B98
S214403F700CBF01230023DBB23B6072B6BFF35F8FFA
S214403F80044B00221A703B6818460C37BD465DF855
S214403F90047B70470A00402080B483B000AF78604E
S214403FA07B68002B14BF01230023DBB218460C3776
S214403FB0BD465DF8047B704780B582B000AF786040
S214403FC07868074B98470346002B05D0054B0122DF
S214403FD01A70BFF35F8F62B600BF0837BD4680BD1C
S214403FE0993F40000A00402080B584B000AF1E4B89
S214403FF0FB601E4BBB60FA68BB689A420CD007E079
S214404000BB681A1DBA60FA68111DF96012681A601A
S214404010BB68174A9342F3D3164BBB6004E0BB68B9
S2144040201A1DBA6000221A60BB68134A9342F6D340
S214404030124BFB60124AFB6823F07F039360114BE0
S21440404098477860104A104B1B6843F4700313601F
S214404050BFF34F8FBFF36F8F78680C4B98470C4B6E
S21440406098470C4B9847FEE744C04300000040206A
S214404070C0094020C00940200C9F4120000040005D
S21440408000ED00E0613F400088ED00E0B93F4000B1
S214404090D14840002D44400080B400AFFEE7000009
S2144040A080B400AF524B1B6B03F00303012B14D0BC
S2144040B0012B02D3022B38D07AE04E4B5B6903F0DB
S2144040C08003002B04D04C4B4FF400421A606FE044
S2144040D0494B4FF4FA421A606AE0454B1B6A03F0BC
S2144040E08073002B03D0444B444A1A6060E0424B36
S2144040F0434A1A603E4B1B6A03F07003102B04D0F1
S214404100202B08D0002B0ED00EE03B4B1B685B00EC
S214404110394A136008E0384B1A6813465B0013446C
S214404120354A136000E000BF42E0314B1B6A03F0A3
S2144041308073002B03D0304B304A1A601CE02E4B65
S2144041402F4A1A602A4B1B6A03F07003102B04D0C8
S214404150202B08D0002B0ED00EE0274B1B685B00B0
S214404160254A136008E0244B1A6813465B00134444
S214404170214A136000E000BF1D4B1B6B03F0030396
S214404180022B14D11A4B9B6A1B0CC3F30A03013350
S214404190194A126802FB03F3174A1360144B9B6AD2
S2144041A0DBB2154A1268B2FBF3F3134A136000BF42
S2144041B00F4B1B6B03F07003702B08D10E4B1B6824
S2144041C0104AA2FB03235B080B4A13600AE0084B25
S2144041D01B6B1B0903F00703074A126822FA03F316
S2144041E0054A136000BFBD465DF8047B704700BFBC
S2144041F000060E4010180E400C004020001BB70072
S21440420000093D00ABAAAAAA80B483B000AF78608C
S2144042107B68194A934204D8184B4FF080621A6064
S21440422023E07B68164A934203D8144B154A1A601B
S2144042301BE07B68144A934203D8104B134A1A601B
S21440424013E07B68124A934203D80C4B114A1A601B
S2144042500BE07B68104A934204D8084B4FF0042288
S2144042601A6002E0054B0D4A1A6000BF0C37BD4687
S2144042705DF8047B704700BFFF2C3101000C0E40F8
S214404280FF59620200010004FF8693030002000407
S214404290FFB3C40400030004FFE0F5050005000476
S2144042A080B485B000AF7860104BFB60104B1B6845
S2144042B0002B02D10E4B0F4A1A600D4B1B68BB6099
S2144042C0BA687B681A44FB689A4202DD4FF0FF33B7
S2144042D006E0074B1A687B681344054A1360BB68C0
S2144042E018461437BD465DF8047B7047FCFF4520F2
S2144042F0140E402010C1412080B483B000AF7860D7
S2144043004FF0FF3318460C37BD465DF8047B7047C8
S21440431080B483B000AF786039603B684FF4005299
S2144043205A60002318460C37BD465DF8047B70473C
S21440433080B485B000AFF860B9607A600023184654
S2144043401437BD465DF8047B7047000080B584B0E6
S21440435000AFF860B9607A603B60044B9847044B06
S2144043609847034618461037BD4680BD9109400021
S214404370A909400080B584B000AFF860B9607A60A3
S2144043803B60044B9847044B984703461846103703
S214404390BD4680BD91094000A909400080B584B063
S2144043A000AFF860B9607A603B60044B9847044BB6
S2144043B09847034618461037BD4680BD91094000D1
S2144043C0A909400080B586B000AFF860B9607A6051
S2144043D03B6000237B611AE000233B6110E07A6972
S2144043E013469B0013449B011A46FB681A443B68DD
S2144043F0D9B23B6913440A461A703B6901333B61A4
S2144044003A69BB689A42EADB7B6901337B617A6929
S2144044107B689A42E0DB034B9847034B9847183734
S214404420BD4680BD91094000A9094000B0B59CB08A
S21440443002AF524B07F14C041D460FCD0FC42B68FC
S21440444023604F4B98474F4B01221A70002387F842
S21440445067304C4B1B78DBB2002BFAD04A484B4BAC
S214404460984740F2DF1340F23F1200210020484CAC
S214404470A0474848454B984797F867309B0007F158
S2144044806802134453F81C3C1A461E215A20424BDD
S214404490984797F86730002B04D100213F48404B9F
S2144044A0984757E097F86730012B15D100234FF413
S2144044B0A0724FF4A0713B483B4CA0474FF4A0730A
S2144044C04FF4A07237493548384CA0473866396EA5
S2144044D03448334B98473DE097F86730022B17D166
S2144044E0E6234FF4A0724FF4A0712E482E4CA047FE
S2144044F03A464FF4A07300934FF4A07329492748D7
S2144045002B4CA0473866396E2648254B984721E005
S21440451097F86730032B04D100212648204B984754
S21440452018E097F86730042B14D17F234FF4A0721D
S2144045304FF4A0711B481C4CA0474FF4A0734FF497
S214404540A07218491B481C4CA0473866396E15485F
S214404550134B984797F867305A1C184B83FB021347
S2144045605910D317C91A0B469B000B44D11A0B4659
S21440457087F86730034B00221A706AE77CBD430019
S214404580910B4000180E4020FCFCFC0039244000F3
S214404590652540004460FC0015274000409D4000D3
S2144045A02D0D4000E40E4020C54340004D434000E2
S2144045B09D434000402D4200754340006766666656
S2144045C053B94AB9002908BF00281CBF4FF0FF3135
S2144045D04FF0FF3000F07AB9ADF1080C6DE904CE2B
S2144045E000F006F8DDF804E0DDE9022304B0704789
S2144045F02DE9F0478C460D460446089E002B51D1C7
S2144046008A4217466DD9B2FA82FEBEF1000F0BD031
S214404610CEF1200C01FA0EF520FA0CFC02FA0EF749
S2144046204CEA050C00FA0EF44FEA174A250CBCFB80
S214404630FAF81FFA87F90AFB18CC45EA0C4508FB3E
S21440464009F3AB420AD9ED1908F1FF3280F0238115
S214404650AB4240F22081A8F102083D44ED1AA4B2D4
S214404660B5FBFAF00AFB105544EA054400FB09F98D
S214404670A14509D9E41900F1FF3380F00A81A1452C
S21440468040F2078102383C44A4EB090440EA084063
S2144046900021002E61D024FA0EF4002334607360AB
S2144046A0BDE8F0878B4207D9002E54D0002186E81B
S2144046B021000846BDE8F087B3FA83F1002940F0B0
S2144046C08E80AB4202D3824200F2FA80841A65EBB7
S2144046D003050120AC46002E3FD086E81010BDE80A
S2144046E0F08712B90127B7FBF2F7B7FA87FEBEF19B
S2144046F0000F34D1EB1B3A0C1FFA87FC0121B3FBA9
S214404700F2F8250C02FB183345EA03450CFB08F388
S214404710AB4207D9ED1908F1FF3002D2AB4200F2A6
S214404720D1808046ED1AA3B2B5FBF2F002FB1055DD
S21440473043EA05440CFB00FCA44507D9E41900F104
S214404740FF3302D2A44500F2B8801846A4EB0C040E
S21440475040EA08409DE731463046BDE8F087CEF156
S214404760200405FA0EF307FA0EF720FA04F83A0C7E
S21440477025FA04F448EA0308B4FBF2F14FEA184578
S21440478002FB11441FFA87FC45EA044501FB0CF383
S214404790AB4200FA0EF409D9ED1901F1FF3080F072
S2144047A08A80AB4240F2878002393D44EB1A1FFABA
S2144047B088F5B3FBF2F002FB103345EA034500FBF5
S2144047C00CF3AB4207D9ED1900F1FF386FD2AB427C
S2144047D06DD902383D44EB1A40EA01418FE7C1F1FA
S2144047E0200722FA07F88B4005FA01F448EA03034B
S2144047F020FA07FE4FEA134CFD404EEA040EB5FB86
S214404800FCF94FEA1E440CFB19551FFA83F844EA9C
S214404810054509FB08F4AC4202FA01F200FA01FA37
S21440482008D9ED1809F1FF3043D2AC4241D9A9F17D
S21440483002091D442D1B1FFA8EFEB5FBFCF00CFB37
S21440484010554EEA054400FB08F8A04507D9E41881
S21440485000F1FF3529D2A04527D902381C4440EA4A
S2144048600940A4EB0804A0FB02894C45C6464D46C9
S21440487015D312D056B1BAEB0E0364EB050404FA16
S21440488007F7CB401F43CC40376074600021BDE83B
S214404890F0871846F8E69046E0E6C245EAD2B8EB1E
S2144048A0020E69EB03050138E4E72846D7E74046A1
S2144048B091E78146BEE7014678E702383C4445E743
S2144048C0084608E7A8F102083D442BE7704700BFBA
S2144048D070B50F4E0F4D761BB61018BF002405D08E
S2144048E0013455F8043B9847A642F9D10A4E0B4D81
S2144048F0761B37F091FBB61018BF002406D0013463
S21440490055F8043B9847A642F9D170BD70BD00BF2C
S21440491024C0430024C043002CC0430024C04300AE
S214404920844641EA000313F003036DD1403A41D375
S21440493051F8043B40F8043B51F8043B40F8043B34
S21440494051F8043B40F8043B51F8043B40F8043B24
S21440495051F8043B40F8043B51F8043B40F8043B14
S21440496051F8043B40F8043B51F8043B40F8043B04
S21440497051F8043B40F8043B51F8043B40F8043BF4
S21440498051F8043B40F8043B51F8043B40F8043BE4
S21440499051F8043B40F8043B51F8043B40F8043BD4
S2144049A051F8043B40F8043B51F8043B40F8043BC4
S2144049B0403ABDD2303211D351F8043B40F8043B64
S2144049C051F8043B40F8043B51F8043B40F8043BA4
S2144049D051F8043B40F8043B103AEDD20C3205D374
S2144049E051F8043B40F8043B043AF9D2043208D06C
S2144049F0D2071CBF11F8013B00F8013B01D30B88DE
S214404A0003806046704700BF082A13D38B078DD0BB
S214404A1010F003038AD0C3F10403D21ADB071CBF8D
S214404A2011F8013B00F8013B80D331F8023B20F8F7
S214404A30023B7BE7043AD9D3013A11F8013B00F830
S214404A40013BF9D20B7803704B7843708B788370B8
S214404A506046704770B4860746D0541E002A41D040
S214404A60CAB2034602E014F1FF343BD303F8012BED
S214404A709D07F8D1032C2ED9CDB245EA05250F2C3B
S214404A8045EA054519D903F110022646103E0F2E79
S214404A9042F8105C42F80C5C42F8085C42F8045C51
S214404AA002F11002F2D8A4F1100222F00F0204F034
S214404AB00F041032032C13440DD91E462246043AE6
S214404AC0032A46F8045BFAD8221F22F00302043277
S214404AD0134404F003042CB1C9B21C4403F8011B70
S214404AE09C42FBD170BC704714460346C2E700BFE9
S214404AF000290CBF022200224FF4806300F000B869
S214404B002DE9F043614C256883B004460F46904635
S214404B101E4615B1AB6B002B64D0B8F1020F06D021
S214404B20B8F1010F00F29F80002EC0F29C80636EA9
S214404B30D80734D52146284602F06CFB216B41B19C
S214404B4004F14003994202D0284602F05DFC00235F
S214404B502363B4F90C300022A26162601A063AD48C
S214404B6023F44A6323F00303B8F1020FA3811DD058
S214404B7001AB6A462146284602F06CFDA3891843DD
S214404B80A081002E32D1009E304602F091FD0746AD
S214404B9000286BD0A38943F08003A38128E0A38933
S214404BA09905C7D4A06D02F051FDC3E70025616E9C
S214404BB0002604F1430243F002030120A660CE071C
S214404BC0A38122602261606101D498053ED52846C3
S214404BD003B0BDE8F0832169284602F015FCB4F91D
S214404BE00C30BDE7284602F06DFB96E7002FCBD091
S214404BF0AB6B002B33D0009BB4F90C2027609E4251
S214404C001CBF42F40062A281B8F1010F04BF42F01B
S214404C100102A28192B212F00803276166610ED0AB
S214404C20D1071AD5656E7642002315F00105A661B8
S214404C30A36009D00025284603B0BDE8F083A360F2
S214404C40656E15F00105F5D19305C0D4A06D02F050
S214404C50FFFC284603B0BDE8F083A660F0E7284690
S214404C6002F030FBC7E74FF0FF35B0E7DDF80090C5
S214404C70B14504D0484602F01BFD074620B9B4F9BA
S214404C800C304FF0FF3592E74E4683E71000402049
S214404C900EB4F0B59CB021AB0F4953F8042B0193EA
S214404CA005466FF00044086802954FF402774FF6C9
S214404CB0FF7602A90695ADF8147004940794ADF8F3
S214404CC0166000F00BF8029B00221A701CB0BDE87C
S214404CD0F04003B0704700BF100040202DE9F04F71
S214404CE0C3B00C460B9192460F930C9002F09CFC7E
S214404CF003681A93184603F043FBA38919901906D4
S214404D0003D52369002B01F0038000230DF1C80969
S214404D101393159314932793269318931B930993F1
S214404D20CDF89490C846169317939AF80030544698
S214404D30E3B1252B02D119E0252B03D014F8013F0F
S214404D40002BF9D1A4EB0A0585B1269B279AC8F813
S214404D5000A001332A44072BC8F804502792269314
S214404D607FDC08F10808099B2B4409932378002B25
S214404D707FD000231A468DF8773019460D939B4610
S214404D804FF0FF3063780A9004F1010A0AF1010AF5
S214404D90A3F12000582800F2C183DFE810F0380263
S214404DA0BF03BF034002BF03BF03BF03BF03BF032E
S214404DB0BF0345020302BF035D006B02BF038602CA
S214404DC09D039D039D039D039D039D039D039D039E
S214404DD09D03BF03BF03BF03BF03BF03BF03BF03A0
S214404DE0BF03BF03BF0337035703BF035703BF03C6
S214404DF0BF03BF03BF039803BF03BF03AD03BF0397
S214404E00BF03BF03BF03BF035902BF03BF031E0355
S214404E10BF03BF03BF03BF03BF03BF03BF03BF033D
S214404E20BF03BF03C602DB025703570357038B0279
S214404E30DB02BF03BF039002BF039D02CC01B40256
S214404E400802BF03E101BF037E00BF03BF030D029C
S214404E500D980F9340420D904BF0040B9AF800309B
S214404E6094E725AA0B990C9803F0F8FA40B9C8467F
S214404E7079E7279B23B10C980B9925AA03F0EEFA05
S214404E800B9B9B8913F0400F099B18BF4FF0FF33D5
S214404E900993099843B0BDE8F08F1BF0200F11939B
S214404EA040F0DD810F9A1BF0100F134640F06E85E0
S214404EB01BF0400F00F06A85148804320025012359
S214404EC00F9200278DF877700A994A1C00F0658289
S214404ED02BF08002079254EA050240F064820029D3
S214404EE040F03C84002B40F0D7841BF001030E9327
S214404EF000F0048642AE302306F8413D0A9B0E9AE7
S214404F009342B8BF134608930023129317B1089BE9
S214404F1001330893079B13F00203109302D0089BBB
S214404F2002330893079B13F0840540F00E830D9BD5
S214404F30089AA3EB020BBBF1000F40F30683BBF1CC
S214404F40100F279C269A29DD43462146A84610275F
S214404F500C9C0B9D06E0ABF1100BBBF1100F03F160
S214404F60080318DD0132B74826921031072A2791E8
S214404F7083E88100EFDD25AA2946204603F06EFA35
S214404F8000287FF47DAFABF1100BBBF1100F2799D3
S214404F90269A4B46E6DC45460C4698460132A94BD7
S214404FA026925C44072A279488E8080800F39884E9
S214404FB09DF8777008F1080877B1269B01330134D5
S214404FC00DF177010122072B2794269388E80600E7
S214404FD000F3DB8308F10808109B6BB1269B013376
S214404FE002341EA90222072B2794269388E806003F
S214404FF000F3D68308F10808802D00F015830A9B3D
S2144050000E9A9F1A002F36DD102F269B8E4D27DDD9
S21440501042462146B0464FF0100B2E460C9C0B9D48
S21440502004E0103F102F02F1080215DD0133103165
S214405030072B2791269382E84008F2DD25AA2946C9
S214405040204603F00BFA00287FF41AAF103F102FCB
S2144050502799269B4A46E9DC35460C464646904606
S21440506001333C44072B2794269388E8A00000F39E
S214405070818308F10808079BDF0500F16882269BBC
S2144050800E99C8F8006001330C44072B2794C8F8E3
S2144050900410269300F34D8308F10808079B5B072E
S2144050A03AD50D9B089A9D1A002D35DD102D269B6E
S2144050B020DD10260C9FDDF82CB004E0103D102DAE
S2144050C008F1080816DD01335E4A26931034072B94
S2144050D0279488E84400F1DD25AA5946384603F06F
S2144050E0BDF900287FF4CCAE103D102D279C269BA2
S2144050F0C846E8DC0133534A26932C44072B2794B2
S21440510088E8240008DD25AA0B990C9803F0A6F938
S21440511000287FF4B5AE279C099B0D9A08998A42D1
S214405120ACBF9B185B180993002C40F00D830023FE
S2144051302693C846F9E511931BF0200340F0E3811F
S2144051401BF0100240F02E841BF0400300F02A842F
S2144051500F9913460A4604320C880F920025B0E693
S2144051600F9A1193166800248DF87740151D002E6F
S21440517000F0A7860A9A531C00F00986214630465E
S21440518002F04EFD002800F0E186831B0E930A9441
S2144051900F95CDF81CB023EAE373089312949DF85C
S2144051A07770B3E69AF8003001222B21EEE54BF0FB
S2144051B0200B9AF80030E9E51193002A40F09587D5
S2144051C0224B18931BF0200F40F011810F9A1BF0D2
S2144051D0100F134640F0E1831BF0400F00F0DD83D4
S2144051E0043314880F9300251BF0010F00F00C8148
S2144051F054EA050300F0088130239DF844208DF8DA
S21440520078308DF879204BF0020B022359E69AF855
S214405210003000297FF4BAAD01222021B6E54BF0DC
S214405220010B9AF80030B1E50F9C23680D931846A1
S2144052300028234603F10403FFF60AAE0F939AF8BC
S2144052400030A3E5D8BD4300E8BD4300B8BD4300E9
S2144052504BF0100B1BF0200F11933FF423AE0F9D25
S214405260073525F0070303F10802D3E900450F92FE
S214405270012326E69AF800302A2B0AF1010400F0B2
S2144052802787A3F130000928A24600F2AD86002306
S2144052901C461AF8013B04EB840400EB4404A3F1DB
S2144052A030000928F5D90A9472E54BF0800B9AF83D
S2144052B000306BE54BF0400B9AF8003066E59AF804
S2144052C000306C2B03BF9AF801304BF0200B0AF1EC
S2144052D0010A4BF0100B59E5002A40F011871BF0ED
S2144052E0200F40F0F9841BF0100F40F0AC841BF008
S2144052F0400F00F0A8840F9A136804320F92BDF84E
S21440530024201A8011E50F99B34B0C68189330226D
S214405310782304318DF8793011934BF0020B0F91BE
S21440532000258DF878200223CBE50F9911930A6863
S2144053308DF8A02000230A461F468DF877300432A9
S21440534001230893CDF81CB00A9712970F920E933C
S21440535028AEDFE51193002A40F0EA861BF0200FC6
S2144053605DD11BF0100F40F008831BF0400F00F09B
S21440537004830F99B1F900400431E51722462B46C5
S2144053800F91002A73F1000358DB0A999DF8777055
S2144053904A1C4FF001037FF49BAD54EA050200F02F
S2144053A0DF81CDF81CB0012B00F07B82022B40F051
S2144053B0068218984E46230904F00F0143EA057307
S2144053C02A091C461546435C06F8013D54EA050387
S2144053D0F1D1A9EB06030E9390E51193002A40F015
S2144053E0A3867E4B18931BF0200F3FF4EFAE0F9D25
S2144053F0073525F0070303F108021BF0010F0F9253
S214405400D3E900457FF4F4AE02235AE51193002A0F
S21440541040F086864BF0100B1BF0200FA1D00F9D5E
S214405420073525F00705D5E90023002A05F10801D0
S2144054301D4673F100030F911446A6DA2D276442E9
S21440544065EB45058DF8777001233DE51193002AFD
S21440545040F062860F9D073525F0070303F10802EA
S2144054600F921A6815925B681493149B159D23F04F
S2144054700044284621464FF0FF32594B04F048F886
S214405480002840F04A83284621464FF0FF32544BCE
S21440549004F020F8002840F0408315A80DC8149961
S2144054A004F00EF8002840F030859DF877704D4E99
S2144054B04D4B2BF080000790119803220021089254
S2144054C00A914728D8BF1E460E9212911EE54BF011
S2144054D0080B9AF8003059E4A3F1300000231C462C
S2144054E01AF8013B04EB840400EB4404A3F13000BB
S2144054F00928F5D90D944BE44BF0100B11931BF093
S21440550020033FF41DAE0F9D073525F0070303F13A
S2144055100802D3E900450F920023D2E41193002AF3
S21440552040F0E785119A002A3FF4A3AC00230121FE
S2144055301F4608918DF8A020CDF81CB08DF8773026
S2144055400A9312930E9128AEE4E4279C34E5119B0F
S214405550652B40F3A78015A80DC8149903F0A6FF45
S214405560002800F05081269B204AC8F800200133CE
S21440557001340122072B27942693C8F8042000F311
S2144055806A8308F108081F9B139A279C934203DB03
S214405590079BDD077FF582AD269B19991A9AC8F8B6
S2144055A0002001330C44072BC8F804102794269398
S2144055B000F39E8308F10808139B5E1E002E7FF7BB
S2144055C06DAD102E269B0A4D40F3F58122461027DE
S2144055D0DDF830B00B9C13E0B8BD4300A4BD4300DB
S2144055E0FFFFEF7F98BD430094BD4300D4BD43000A
S2144055F0E8BD430008F10808103E102E40F3DA815B
S21440560001331032072B2792269388E8A000F1DD5D
S21440561025AA2146584602F021FF00287FF430ACE8
S214405620279A269BC846E7E70D9B089A9F1A002FA5
S2144056307FF7E5AC102F269BB64D27DD4246214628
S214405640B0464FF0100B2E460C9C0B9D04E0103FCE
S214405650102F02F1080215DD01331031072B279178
S214405660269382E84008F2DD25AA2946204602F025
S214405670F5FE00287FF404AC103F102F2799269B98
S2144056804A46E9DC35460C464646904601333C449D
S214405690072B2794269388E8A00000F3328208F16F
S2144056A00808ACE4139B269F012B40F3FE8101378C
S2144056B001340123072F27942697C8F80060C8F8BE
S2144056C0043000F3038208F10808199A1A9BC8F8B8
S2144056D0003001371444072F27942697C8F8042033
S2144056E000F3008208F1080815A80DC8149903F0C5
S2144056F0DDFE139B002840F00181013B0137013657
S2144057001C44072F26972794C8F80060C8F8043032
S21440571000F3278108F108081B9AC8F804200137CF
S214405720144421AB072F27942697C8F800307FF7FC
S214405730B3AC25AA0B990C9802F090FE00287FF493
S2144057409FAB279CC846A9E425AA0B990C9802F063
S21440575085FE00283FF4EBACFFF792BBDDF81CB0AB
S214405760012B00F03481022B25D1CDF81CB000244B
S21440577000251EE625AA0B990C9802F06FFE00281D
S2144057807FF47EAB279CC84675E425AA0B990C98F7
S21440579002F064FE00287FF473AB279CC8461BE4E7
S2144057A025AA0B990C9802F059FE00287FF468ABA6
S2144057B0279CC84620E4CDF81CB000240025494666
S2144057C000E03146E20842EA4572E80804F0070382
S2144057D005461446303354EA050201F8013C01F10F
S2144057E0FF36EED1079AD2077FF5F3AD302B3FF464
S2144057F0F0AD0239302306F8013CA9EB01030E93C5
S2144058000E46FFF77BBB1F99002940F32E82129B62
S214405810139A9342A8BF1346002B1F460DDD269BC6
S214405820C8F8006001333C44072B2794C8F804703E
S214405830269300F31F8308F10808129B002FA8BF89
S214405840DB1B002B1F4640F3D680102F269B314D86
S21440585040F3ED8142462146B0464FF0100B2E46AF
S2144058600C9C0B9D04E00832103F102F40F3DB8168
S21440587001331031072B2791269382E84008F2DD4A
S21440588025AA2946204602F0E9FD00287FF4F8AA1A
S2144058902799269B4A46E7E70A9B0E934E46FFF714
S2144058A02DBB002D08BF0A2CC0F08F804E462046E8
S2144058B029460A220023FEF783FE303206F8012DE1
S2144058C02046294600230A22FEF77AFE04460D4665
